:020000040800F2
:10000000FFFF0020514100089D4100089D4100086C
:100010009D4100089D4100089D410008000000002E
:100020000000000000000000000000009D410008EA
:100030009D410008000000009D4100082D4000087F
:100040009D4100089D4100089D4100089D41000818
:100050009D4100089D410008494000089D4100085D
:100060009D4100089D4100089D4100089D410008F8
:100070009D4100089D4100089D4100089D410008E8
:100080009D4100089D4100089D41000800000000BE
:100090000000000000000000000000009D4100087A
:1000A0009D4100089D4100089D4100089D410008B8
:1000B0009D4100089D4100089D4100089D410008A8
:1000C0009D4100089D4100089D4100089D41000898
:1000D0009D4100089D4100089D410008000000006E
:1000E0009D4100089D4100089D410008000000005E
:1000F0000000000000000000000000009D4100081A
:10010000000000009D4100089D4100089D4100083D
:1001100000000000000000000000000000000000DF
:100120009D4100089D4100089D4100089D41000837
:100130009D410008000000000000000000000000D9
:100140000000000000000000000000003D4000082A
:100150009D4100089D4100089D4100089D41000807
:100160009D4100089D4100080000000000000000C3
:10017000000000000000000000000000000000007F
:10018000000000009D410008000000000000000089
:040190009D41000885
:100194000D4B00211A6810B442F001021A609960F4
:1001A4001A680A4C22F0847222F480321A605C606D
:1001B4001A6807484FF0006422F480221A60D9605C
:1001C40084605DF8044B704700380240103000240E
:1001D40000ED00E010B41B4CA36803F00C03042BE7
:1001E40024D0082B0BD0184B164A184992685DF896
:1001F400044BC2F303128A5CD3400B6170476368FB
:1002040061685B0201F03F0212D40F496368B1FBDD
:10021400F2F1C3F3881301FB03F20A4B5B68C3F3E7
:10022400014301335B00B2FBF3F3DDE7084BDBE78B
:1002340007486368B0FBF2F1C3F3881301FB03F2D0
:10024400EBE700BF003802400024F4000000002067
:1002540040787D01704700BF704700BF10B5094B5F
:100264004FF0FF3200241A621C625A625C621A6107
:100274001C615A615C619A619C61FFF7EDFF204645
:1002840010BD00BF0038024010B5044600F064FC05
:10029400064BA3FB0030800900F0C4FD21464FF05B
:1002A400FF30002200F060FD002010BDD34D62102D
:1002B40008B50B4B03201A6842F400721A601A68DE
:1002C40042F480621A601A6842F480721A6000F084
:1002D40039FD0020FFF7D8FF03F09AFE002008BD87
:1002E400003C0240024A136801331360704700BFA8
:1002F400A4090020014B1868704700BFA40900201E
:1003040010B582B00190FFF7F5FF0446FFF7F2FF46
:10031400019B001B9842F9D302B010BD024A136836
:1003240023F002031360704710E000E0024A1368F0
:1003340043F002031360704710E000E00048704788
:1003440000000301014B1868000C7047002004E012
:10035400024B1868C0F30B00704700BF002004E094
:10036400024A536843F0010353607047002004E0DD
:10037400024A536823F0010353607047002004E0ED
:10038400024A536843F0020353607047002004E0BC
:10039400024A536823F0020353607047002004E0CC
:1003A400024A536843F0040353607047002004E09A
:1003B400024A536823F0040353607047002004E0AA
:1003C400012292FAA2F3B3FA83F30249DBB241F8B1
:1003D4002320704700042742012393FAA3F3B3FABE
:1003E40083F3034ADBB2002142F82310704700BFB5
:1003F4000004274270B40668736AD1B1B46A013943
:1004040003EB14440CD000231846403306EB83035B
:1004140001305D68C0B2884204EB15440346F4DB46
:10042400403106EB810144EA02444C60002070BC78
:10043400704743EA0244B462002070BC704700BFB6
:100444000368002059627047104B00211A68104855
:1004540042F081021A6099601A6822F0A16222F4C3
:1004640080321A6059605A6810435860C3F8841087
:10047400D3F8842042F0005242F44052C3F884205E
:100484001A6822F480221A60D9607047003802404A
:1004940010300004F0B5036883B0DE07044637D596
:1004A400A6498A6802F00C02042A00F0F5808A68E2
:1004B40002F00C02082A00F0EB80A14B00221A7013
:1004C400FFF718FF9D4D074641F2883605E0FFF718
:1004D40011FFC01BB04200F2CA802B689903F6D406
:1004E400974B22791A706368002B00F01381FFF791
:1004F40001FF924D074641F2883605E0FFF7FAFE08
:10050400C01BB04200F2B3802B689A03F6D523686F
:100514009F0730D5894A916811F00C0F00F0AE8026
:10052400916801F00C01082900F0A480E368002B15
:1005340000F0DF80834B01221A60FFF7DBFE7F4D62
:10054400064605E0FFF7D6FE801B642800F28F8084
:100554002B687A4A9807F5D51168F82393FAA3F320
:10056400B3FA83F32069DBB221F0F801984040EA42
:100574000103136023681A0720D4580734D4A369ED
:10058400CBB16E4DAA6802F00C02082A7DD0022B72
:100594006D4B4FF000021A6000F0CC80FFF7AAFE0A
:1005A4002C46054604E0FFF7A5FE401B64285ED8F0
:1005B40023689B01F7D4002003B0F0BD6369002BCE
:1005C40074D0624B01221A60FFF794FE5B4D06461D
:1005D40004E0FFF78FFE801B642848D86B6F9B07ED
:1005E400F7D523685807CAD5544A594B116C1D4690
:1005F40041F080511164126C02F080520192019A10
:100604001A6842F480721A60FFF774FE064604E02A
:10061400FFF770FE801B642829D82B68D905F7D50D
:100624004C4B00221A70FFF765FE444D074641F219
:10063400883604E0FFF75EFEC01BB04217D82B6F6C
:100644009A07F7D4434B227A1A70A368002B00F060
:10065400C580FFF74FFE41F288360746374D2B6FB2
:100664009B078CD4FFF746FEC01BB042F7D903208A
:1006740003B0F0BD526856023FF558AF2F4A1268D6
:10068400950723D5E268012A20D0012003B0F0BDEC
:100694004A6855027FF511AF284A126890037FF526
:1006A40037AF6268002A7FF433AFEEE7274A234D61
:1006B4001360FFF71FFE064604E0FFF71BFE801BD6
:1006C4006428D4D86B6F9F07F7D48AE71B4DF822B0
:1006D400296892FAA2F2B2FA82F22069D2B221F027
:1006E400F801904040EA01022A601A077FF545AFFD
:1006F40064E7144A114D1360FFF7FCFD064604E05D
:10070400FFF7F8FD801B6428B1D82B689907F7D44C
:10071400236830E7FFF7EEFD084D074641F28836BF
:1007240004E0FFF7E7FDC01BB042A0D82B689B0391
:10073400F7D4ECE6FFF7DEFD064612E0003802408F
:10074400023802400000474260004742800E4742A0
:100754000070004070380240FFF7CCFD801B642815
:1007640085D82B68254A9901F6D447F6C07E9EFAAF
:10077400AEFEBEFA8EFE4FF4403797FAA7F7B7FAEB
:1007840087F74FF0706191FAA1F1B1FA81F1A36A90
:10079400606A266AE5695FFA8EFE5B08E46A00FA1D
:1007A4000EF03543FFB2013B2843C9B2BB4004FA03
:1007B40001F1034312480B430121536001601446C5
:1007C400FFF798FD054605E0FFF794FD401B6428FC
:1007D4003FF64DAF23689A01F6D5ECE6FFF78AFDA4
:1007E40041F288360746054D2B6F98077FF5C7AE53
:1007F400FFF780FDC01BB042F6D938E7003802404D
:10080400600047427C4A2DE9F04113680C4603F02E
:100814000F038B42054609D2CBB21370136803F061
:100824000F038B4258D00120BDE8F08103689A077A
:1008340006D57248AA68816821F0F0010A438260F3
:10084400DF0727D56B68012B79D09A1E012A6B4AE2
:10085400126840F287809107E5D5684EB26822F0AD
:1008640003021343B360FFF745FD6B680746012B92
:100874007CD0022B00F08880032B65D041F28838AD
:1008840004E0FFF737FDC01B404565D8B36813F09B
:100894000C0FF6D1584BE2B21A701B6803F00F0329
:1008A400A342C0D12B685A0706D55448EA68816828
:1008B40021F4E0510A4382601B0707D54F4A296996
:1008C400936823F4604343EAC10393600020FFF775
:1008D400DBFC0020BDE8F08103689F0706D547488C
:1008E400AA68816821F0F0010A438260DE07DAD544
:1008F4006B68012B56D09A1E012A404A12682ED9E1
:10090400910790D53D4CA26822F003021343A360E3
:10091400FFF7F0FC6B680646012B48D0022B54D03D
:10092400032B60D041F2883704E0FFF7E3FC801B1F
:10093400B84211D8A36813F00C0FF6D1B2E72F4ACE
:100944001268960389D46EE741F28834B368FFF7DE
:10095400D1FCC01BA042F9D90320BDE8F08190016D
:10096400D0D460E790013FF578AF5CE741F2883876
:1009740004E0FFF7BFFCC01B4045EDD8B36803F0AB
:100984000C03042BF5D185E741F2883804E0FFF726
:10099400B1FCC01B4045DFD8B36803F00C03082B3F
:1009A400F5D177E7154A12689403ABD43BE741F2DB
:1009B400883704E0FFF79EFC801BB842CCD8A368BC
:1009C40003F00C03042BF5D16CE741F2883704E003
:1009D400FFF790FC801BB842BED8A36803F00C0359
:1009E400082BF5D15EE741F28835A368FFF782FC56
:1009F400801BA842F9D9AFE7003C0240003802400E
:100A0400F0B5034689B00D461646234C08B3236B54
:100A14004FF4007E43F004032363236B032203F0AB
:100A240004030293022700231C4803A9069205939A
:100A34000793DDF808C0CDF80CE0049702F004FA3F
:100A4400A36845EAC60223F078431A43A26009B0BA
:100A5400F0BD226B4FF4807C42F001022263226BD2
:100A64004FF0020E02F00102019203270C4803A981
:100A7400019A05930793CDF80CC0CDF810E00697C2
:100A840002F0E2F9A36823F0EC6346EA030215439B
:100A9400A56009B0F0BD00BF003802400008024064
:100AA40000000240014B01221A6070474C0047428B
:100AB400014B00221A6070474C00474223498B685F
:100AC40003F00C03042B2DD0082B29D14A6830B431
:100AD4004D6802F03F046A024B6825D447F6C071A2
:100AE40091FAA1F1B1FA81F147F6C070184A1840A1
:100AF400B2FBF4F2C9B2C84002FB00F313494FF44D
:100B04004032486892FAA2F2B2FA82F200F440301B
:100B1400D2B2D04001304000B3FBF0F030BC70479B
:100B24000B4870470B48704747F6C07595FAA5F512
:100B3400B5FA85F547F6C07006491840B1FBF4F2E2
:100B4400EDB2E84002FB00F3D8E700BF00380240F2
:100B54000024F40000127A0008B5FFF7AFFF094A39
:100B6400F023926893FAA3F3B3FA83F3064902F0ED
:100B7400F002DBB222FA03F3CA5C044BD0401860E3
:100B840008BD00BF00380240804B00081000002060
:100B940008B5FFF7E1FF084A4FF4E053926893FA6F
:100BA400A3F3B3FA83F3054902F4E052DBB222FA69
:100BB40003F3CB5CD84008BD00380240804B0008EA
:100BC40008B5FFF7C9FF084A4FF46043926893FAE7
:100BD400A3F3B3FA83F3054902F46042DBB222FAC9
:100BE40003F3CB5CD84008BD00380240804B0008BA
:100BF4000F22394B02601A6810B451035DD50523E6
:100C04004360354B34491B6813F0010318BF0123BB
:100C1400C3600A68F82393FAA3F3B3FA83F302F0E8
:100C2400F802DBB222FA03F303610B6F5A074BD5C8
:100C340005238360284B28495B6F13F0010318BF19
:100C440001234361244B1B68DB014CBF02230123B6
:100C540083614A6847F6C07302F48002C2614A683D
:100C640002F03F0202624C6893FAA3F3B3FA83F3EF
:100C740047F6C072DBB22240DA4042624B684FF45E
:100C8400403292FAA2F2B2FA82F203F4403303F54C
:100C94008033D2B25B00D34083624A684FF0706302
:100CA40093FAA3F3B3FA83F302F07062DBB222FA8D
:100CB40003F3C3625DF8044B70471B6813F480337D
:100CC40018BF012343609CE70B6F13F0010318BFA7
:100CD40001238360AEE700BF003802400E4B0F22B1
:100CE40002609A6810B402F0030242609A680B4CE6
:100CF40002F0F00282609A6802F4E052C2609B68DB
:100D040003F46043DB08036123685DF8044B03F0DC
:100D14000F030B60704700BF00380240003C0240E4
:100D2400704700BF08B5054BDB681B0604D5FFF709
:100D3400F7FF034B80221A7008BD00BF0038024041
:100D44000E3802404FF6FF02064900F00700CB6858
:100D54001A4042F0BF6343F4003343EA0023CB60FC
:100D6400704700BF00ED00E0184B30B4DB68C3F3FC
:100D74000223C3F10705042D03F1040428BF04254D
:100D8400062C17D9033B01249C40013C224001243A
:100D9400AC40013C21409940002842EA01020CDBAE
:100DA400120100F16040D2B200F5614080F80023E6
:100DB40030BC704700221346E9E7054B00F00F00F2
:100DC4001201D2B203441A7630BC704700ED00E041
:100DD400FCEC00E000F01F010123034A40098B40B2
:100DE40042F82030704700BF00E100E043090122CF
:100DF40000F01F0002492033824041F8232070474D
:100E040000E100E0BFF34F8F0449054BCA6802F4C8
:100E1400E0621343CB60BFF34F8FFEE700ED00E0C9
:100E24000400FA050138B0F1807F0DD230B4074BCD
:100E3400074CF0255860002284F8235007211046FF
:100E440030BC9A60196070470120704710E000E0E0
:100E540000ED00E0024BD868C0F30220704700BFE9
:100E640000ED00E0002870B423DB00F1604000F5E1
:100E7400614090F80043240901F00701C1F107061D
:100E8400042E01F1040028BF042606280ED90339D4
:100E940001258D40013D25400120B040CC40013862
:100EA40004EA000111601D6070BC704700252946EA
:100EB400F2E7034C00F00F000444247E2409DBE72E
:100EC400FCEC00E04309012200F01F00024940331A
:100ED400824041F82320704700E100E04309064ABC
:100EE400403300F01F0052F82320012383401342B3
:100EF40014BF01200020704700E100E043090122F3
:100F040000F01F0002496033824041F823207047FB
:100F140000E100E04309064A803300F01F0052F864
:100F2400232001238340134214BF01200020704773
:100F340000E100E0044A042813680CBF43F00403F2
:100F440023F004031360704710E000E0704700BF13
:100F540008B5FFF7FBFF08BD704700BF002865D048
:100F6400F0B50646054603238BB080F87D3302F0C6
:100F74007BFE306800F058FD55F810EB6C462F46A8
:100F84000FCF0FC40FCF0FC43B68371D236097E802
:100F94000E00704600F004FD0021306800F04CFDA6
:100FA40000210C4633463246012082F83410518722
:100FB40001310F2982F8350082F83740D463146474
:100FC400946402F11C02F0D100221146346883F8C3
:100FD400D8215A8702F14000013204EB80000F2A25
:100FE40083F8D91183F8DB11C3F8E011C3F8E411D5
:100FF400C3F8EC1103F11C034160E8D1EE460FCDB8
:10100400AEE80F000FCDAEE80F002B682046CEF8F7
:10101400003097E80E0000F029FD012386F87D33A7
:10102400306801F0FBF900200BB0F0BD01207047DF
:10103400704700BFF0B190F87C330322012B10B548
:10104400044680F87D230ED0012380F87C330068A9
:1010540000F0EAFC206801F091F9206801F0DEF963
:10106400002384F87C33204602F03AFE002084F802
:101074007D0310BD0120704790F87C33012B01D112
:101084000220704710B50446012380F87C330068C1
:1010940001F0B6F9206800F0BFFC002084F87C035E
:1010A40010BD00BF90F87C33012B01D102207047A2
:1010B40010B50446012380F87C33006800F0B4FCCA
:1010C400206801F05BF9206801F0A8F9002084F899
:1010D4007C0310BD704700BF704700BF704700BF5E
:1010E400704700BF704700BF704700BF704700BF24
:1010F400704700BF704700BF704700BF704700BF14
:101104002DE9F04F066887B00446304601F0C8F96F
:1011140010B107B0BDE8F08F206801F08DF9002808
:10112400F7D0206801F088F910F0020F20681CBF86
:101134000223436101F080F9010300F139810027A2
:10114400206801F079F910F4802F206840F0D580F0
:1011540001F072F90028C0F21E82206801F06CF9D7
:10116400000548D4206801F067F9C2047ED42068E1
:1011740001F062F910F4005F206859D101F05CF9C4
:1011840010F0100F206811D0836923F010038361DD
:10119400356AC5F34343022B05F00F0800F0DD81E7
:1011A400062B32D0836943F01003836101F044F9C4
:1011B400030700F14981206801F03EF9C60200F1FD
:1011C4003181206801F038F9850200F1348120680A
:1011D40001F032F9400000F1E380206801F02CF9BD
:1011E400410796D523685D686A0700F197815A68BC
:1011F40015435D608DE7D6F80838D90700F193816F
:1012040020684FF400634361ADE70822304604F5DB
:101214006071C8EBC80801F03DF804EB8803D3F80B
:10122400F021C5F30A151544C3F8F0512068B9E755
:1012340001F03AF92368DA68184622F47052DA6049
:1012440000F0F8FC2268002840F07E81D3684FF457
:10125400007143F41053E0606161D360204602F0F2
:101264007DFD20684FF40053436187E706F500686D
:10127400D8F80430206823F00103C8F804300021B2
:1012840000F0AEFC65686DB106F530630022FF2105
:101294000132A3F50070AA42816003F1200343F8F0
:1012A400181CF5D14FF0FF33C8F81830D8F81C30AB
:1012B400E26A43F00113C8F81C30002A00F03781B9
:1012C400D8F8843043F00B03C8F88430D8F844309D
:1012D40043F00B03C8F84430D6F80038206823F4F0
:1012E400FE63C6F80038217C04F5607201F0F8F85A
:1012F40020684FF4805343613AE701F0A9F880462F
:10130400002800F085812546206806F5106A00272C
:10131400039609E05FEA580807F1010705F11C0587
:101324000AF1200A00F0978018F0010FF2D05FFA5A
:1013340087F9494601F09EF8C307064618D5039B72
:101344002069D3F8342803F500610123BB4022EA65
:1013540003034B6301239842CAF8083000F0368136
:101364004946204602F0ECFC2169012900F0218164
:10137400300744BF0823CAF80830F10644BF1023DD
:10138400CAF80830720644BF4023CAF80830B307CD
:1013940044BF0223CAF8083036065ED42068B9E791
:1013A400204602F00FFD20684FF08043436115E7AB
:1013B400206801F045F8054600283FF4C0AEA34676
:1013C40006F53068002708E06D0807F1010708F109
:1013D40020080BF11C0B3FF4B3AEEA07F4D55FFA17
:1013E40087FA5146206801F03BF810F0010F81465E
:1013F4000ED0236901229342C8F8082000F0F98036
:101404005146204602F092FC2169012900F0E38054
:1014140019F0080F7BD119F0100F1CBF1023C8F866
:101424000830D1E72046F9B202F0C8FC20684FF436
:1014340080134361C6E62046F9B202F0BBFC206883
:101444004FF400134361C3E6204602F083FC206896
:1014540008234361B0E6039E7AE6A86CD5F84CC035
:10146400EA6BCCEB000393421E4628BF1646216864
:1014740016F1030E01F5106B0BEB471B0491DBF81F
:10148400181048BF06F1060E89B2B1EBAE0F40F258
:10149400C280604540F2BF80002800F0BC80296C07
:1014A40005971E462F4625465C46DDF810B004E03D
:1014B400BA6C9A4219D9D61AFA6B964228BF1646C4
:1014C4002A7CB3B2009258464A4600F0CFFE396CEB
:1014D400FB6C314433443964FB64A269F01C92B25E
:1014E40048BFB01DB2EBA00FE2D82C463D462068A1
:1014F400059F002E3FF70EAF049B012203F5006108
:10150400D3F83438BA4023EA02034B6302E7204697
:1015140002F004FC0823C8F808307CE7204602F0F7
:1015240055FC236863E6204602F028FC68E6D8F8F8
:10153400143043F00B03C8F81430D8F8103043F0DB
:101544000B03C8F81030C7E6D3680320402143F4E6
:10155400A053E0606161D36080E647F6F0732B40EE
:10156400002B3FF41FAEC8EBC80804EB88054FEA14
:10157400131842463046D5F8E41100F08BFED5F836
:10158400E421D5F8F03142444344C5F8E421C5F8D8
:10159400F031206806E6D6F80438204623F001032B
:1015A400C6F8043802F002FC20684FF0004343619F
:1015B400D4E5002F7FF4DCAEA36C002B7FF4D8AE0F
:1015C400206804F5607200F08BFFD1E62A6CEB6BA7
:1015D40013442B64C4E6002F7FF41AAFD4F8EC3123
:1015E400002B7FF415AF206804F5607200F078FFDB
:1015F4000EE7D8F81030DBF8E011DBF8E421C3F390
:101604001203CB1A0A44CBF8F031CBF8E421F7E605
:10161400074620689CE504986BE700BF90F87C338C
:10162400012B01D10220704710B50446012380F834
:101634007C33006800F0E4FE002084F87C0310BDD5
:1016440090F87C33012B01D10220704710B5044679
:10165400012380F87C33006800F0E0FE002084F869
:101664007C0310BD90F87C33012B01D1022070471C
:1016740010B50446012380F87C33006800F0B0FE06
:10168400002084F87C0310BDF8B50446080623D472
:10169400C1EBC10080002518002700F5EC7085F827
:1016A400D81185F8D9712118C5F8E02185F8DB3106
:1016B400022B04BF00230B7194F87C33012B01D15E
:1016C4000220F8BD012384F87C33206800F0CEFAB0
:1016D400002084F87C03F8BD01F07F05C5EBC5004C
:1016E400800027184FF0010E07F1340187F83450B9
:1016F40087F835E0FA6387F837307D87D8E700BF8D
:10170400CBB21A0610B5044619D40A46C1EBC1017E
:1017140000EB810101F5EC71DB094B700A7094F860
:101724007C33012B01D1022010BD012384F87C33CA
:10173400206800F053FB002084F87C0310BD01F006
:101744007F02C2EBC20100EB81013431E4E700BF48
:10175400F8B501F07F06F500AC1B00EB8404002112
:10176400C4F8E421C4F8EC31C4F8F01184F8D911B8
:1017740084F8D8610369012B08BFC4F8E82190F804
:101784007C23012A17D0AD1B00EB8505012280F8CC
:101794007C23044605F5EC71DAB200682EB100F042
:1017A4008BFB002084F87C03F8BD00F0ADFC002026
:1017B40084F87C03F8BD0220F8BD00BF01F07F016E
:1017C400C1EBC10100EB8100B0F8F001704700BF2C
:1017D4002DE9F04101F07F06F500AC1B00EB840419
:1017E4004FF0010E4FF000082264A364C4F84C804B
:1017F40084F8346084F835E00369734508BF626493
:1018040090F87C23012A19D0AD1B00EB8505012239
:1018140080F87C23044605F13401DAB2006836B15D
:1018240000F04AFB002084F87C03BDE8F08100F05E
:101834006BFC002084F87C03BDE8F0810220BDE845
:10184400F08100BF38B5CBB21A0604461BD40D464E
:10185400C1EBC10100EB810101F5EC71DB0901224F
:101864004B700D708A7094F87C33934201D102203E
:1018740038BD84F87C23206800F022FD5DB100208F
:1018840084F87C0338BD01F07F05C5EBC50100EB8E
:1018940081013431E2E72068217C04F5607200F0B4
:1018A4001FFEECE738B5CBB21A0605461BD40A4630
:1018B400C1EBC10100EB810101F5EC71DB090024EE
:1018C4004B700A708C7095F87C33012B01D1022087
:1018D40038BD012385F87C33286800F01FFD85F8A6
:1018E4007C43204638BD01F07F02C2EBC20100EB0D
:1018F40081013431E2E700BF90F87C33012B0DD035
:10190400012310B580F87C330B06044608D4006824
:1019140000F078F9002084F87C0310BD02207047A1
:1019240001F07F01006800F05BF9002084F87C037B
:1019340010BD00BF0368D3F8082803F50063D2077D
:1019440003D55A6842F001025A600020704700BF74
:1019540003680020D3F8042822F00102C3F8042805
:10196400704700BF90F87D03704700BF0B4B01E048
:10197400013B10D00269002AFADA0369074A43F0EE
:101984000103036101E0013A05D0036913F0010387
:10199400F9D1184670470320704700BF400D03007B
:1019A40084B038B50A9D05AC012D84E80E000446C8
:1019B40018D0C36843F04003C360FFF7D7FF4FF468
:1019C4008033A363089B012B07D1A36843F00C0366
:1019D400A360A36843F02003A3600020BDE838405F
:1019E40004B07047836B109A23F480338363C36815
:1019F400012A23F4840323F04003C360C36823F45F
:101A04004013C36003D02046FFF7B0FFDAE7C36892
:101A140043F48013C360F6E702468368002043F072
:101A240001039360704700BF02468368002023F0DF
:101A340001039360704700BF08B5C368012923F010
:101A4400C043C36009D019B9C36843F08043C3607D
:101A54003220FEF755FC002008BDC36843F0005354
:101A6400C3603220FEF74CFC002008BD84B02DE991
:101A7400F04308AC84E80E00836BDDF8449043F433
:101A840000238363DDF82CE0B9F1000F03D1836BED
:101A940043F4001383630023C0F8003E0D9BD0F889
:101AA4000028012BC0F8002800F5006400F08480B1
:101AB400D0F8003843F00303C0F800384FF408733B
:101AC4000361444B01E0013B02D002699506FAD45C
:101AD400102303613F4B01E0013B02D00269D206AF
:101AE400FAD400224FF0FF3322616261A361E26104
:101AF40041B3154600F510634FF09048FF261F6868
:101B04000132002FB4BFC3F800801D608A421D61FA
:101B14009E6003F12003F2D10022164600F53063E3
:101B24004FF090484FF0FF0C1F680132002FB4BFF4
:101B3400C3F800801E608A421E61C3F808C003F126
:101B44002003F1D12369BEF1010F23F480732361D3
:101B540023D000226FF0804382614361BEF1000F05
:101B640003D1836943F01003836181691A4B0E9A90
:101B74000B4383611AB1836943F008038361B9F1AC
:101B8400010F05D1836943F0804343F0040383616B
:101B94000020BDE8F04304B07047104B00212363DC
:101BA400236B6FF0804243F4803343F003032363D9
:101BB400236B81614261D8E70A9B23B9D0F80038CE
:101BC400C0F800387AE7D0F8003843F00103C0F8D1
:101BD400003873E7400D030000383C8000018000AA
:101BE400490141F020010161054A01E0013A05D0B3
:101BF400036913F02003F9D1184670470320704796
:101C0400400D030010230361054A01E0013A05D0A9
:101C1400036913F01003F9D1184670470320704785
:101C2400400D03000246D0F8003800201943C2F8E2
:101C340000187047D0F8083800F5006213F0060069
:101C440012D0936803F00603022B0CD0936803F0C0
:101C54000603062B07D0936803F00603042B14BF76
:101C64000020022070470320704700BF70B44B78F7
:101C7400012B20D00D78D0F81C484FF48032AA40B4
:101C84002243C0F81C280B785B0103F530631A5813
:101C940012040DD41D588A6845F08055C97845F45E
:101CA4000045C2F30A0445EA040242EA81421A509A
:101CB400002070BC70470C78A340D0F81C489BB23D
:101CC4002343C0F81C380E78730103F510631A58C7
:101CD4001404EDD41D588A6845F08055C2F30A04F3
:101CE40045F40045CA7845EA040141EA824242EAE1
:101CF40086521A5070BC0020704700BFF0B44B7875
:101D04000D78012B34D06B0103F53063C2581204F3
:101D14000BD52A46F0BCD0F83C184FF480339340DE
:101D24000B43C0F83C3800207047C4588E68CA780A
:101D3400C6F30A0644F40044344344EA824444EAC1
:101D44008552C2500C78244D224600EB441400F511
:101D5400306304F530642B602C602B68C97843F43D
:101D64000043334343EA814343EA82532B60D1E780
:101D74006E0106F5106683591C0428D484598B68B7
:101D840044F0805242F40042CF78C3F30A0342EA9B
:101D9400030444EA874242EA855282510D780E4C8C
:101DA400CE78216841F0805242F4004242EA8642F1
:101DB400134343EA855323600123D0F83C28AB4006
:101DC4009BB21343C0F83C38F0BC002070478B68CA
:101DD400C3F30A03E3E700BFA80900204B7830B43B
:101DE400012B1CD00D78D0F83C48012202FA05F5ED
:101DF40024EA0544C0F83C480D78D0F81C48AA40B1
:101E040024EA0242C0F81C280B7830BC5B0103F5BD
:101E140030631A5822F400421A50002070470C789C
:101E2400D0F83C5803FA04F4A4B225EA0404C0F838
:101E34003C480D78D0F81C48AB409BB224EA03031D
:101E4400C0F81C380B7830BC5B0103F510631A58DA
:101E540022F400421A500020704700BF30B44B787F
:101E6400012B15D00B784FF480345B0103F53063FC
:101E74001A5822F400421A500B78D0F81C2804FA9D
:101E840003F322EA0303C0F81C3830BC0020704777
:101E94000A78520102F51062145824F400441450D4
:101EA4000978D0F81C288B409BB222EA0303C0F8BF
:101EB4001C3830BC00207047F0B54B78012B73D030
:101EC4000C784B6900EB4414D4F8105BED0CED0472
:101ED400C4F8105B0C7800EB4414D4F8105B25F0C4
:101EE400FF5525F4C015C4F8105B6BB38C680D78EE
:101EF4002344013BB3FBF4F300EB45159BB2814F44
:101F0400D5F8106B4FEAC34E0EEA07073E43C5F8F7
:101F1400106B0D7804FB03F300EB4515D5F8104B5B
:101F2400C3F312032343012AC5F8103B22D0CB7814
:101F3400012B28D00B785B0103F53063C25842F0C3
:101F44000442C2500020F0BD0B788C6800EB4313B0
:101F5400D3F8105BC4F312042C43C3F8104B0B7872
:101F6400012A00EB4313D3F8104B44F40024C3F8C4
:101F7400104BDCD10B78CA6800EB4313C3F8142B65
:101F8400CB78012BD6D1D0F8083813F4807F0B78A6
:101F94004FEA431303F53063C2580CBF42F00052BA
:101FA40042F08052C250C5E74B69002B4BD10C78EC
:101FB40000EB4414D4F8105925F0FF5525F4C0154E
:101FC400C4F810590C7800EB4414D4F8105945F4B3
:101FD4000025C4F810590C7800EB4414D4F81059B7
:101FE400ED0CED04C4F81059012A5FD0CC78012C13
:101FF40063D053B10F78D0F834680125BD40354320
:10200400C0F83458CC78012C57D00C78640104F50E
:102014001064055945F004450551CC78012C91D143
:10202400CC680978002A8DD19BB203339B1089D0E8
:1020340000EB013000F5805054F8041B0132934248
:102044000160F9D17EE78E680D789C19013CB4FBE0
:10205400F6F400EB4515D5F810792A4EFF0CFF0471
:10206400C5F810790D78E40400EB4515D5F810791E
:10207400264027F0FF5424F4C014C5F810490C7806
:10208400C3F3120500EB4414D4F810793E43C4F8AA
:1020940010690C7800EB4414D4F810693543C4F883
:1020A4001059CC78012C19D0012AA2D10C780D69D1
:1020B40000EB4414C4F81459A4E7D0F8084814F405
:1020C400807F0C784FEA441404F5106405590CBF62
:1020D40045F0005545F08055055196E70C7800EB26
:1020E4004414D4F8105925F0C045C4F810590C789C
:1020F40000EB4414D4F8105945F00055C4F81059B5
:1021040072E700BF0000F81F4B7870B4012B39D080
:102114000B784D6900EB4313D3F8104BE40CE40443
:10212400C3F8104B0B7800EB4313D3F8104B24F097
:10213400FF5424F4C014C3F8104B8C6805BB0B780F
:10214400C4F3120400EB4313D3F8105B012A45F4E3
:102154000025C3F8105B0B7800EB4313D3F8105B36
:1021640044EA0504C3F8104B55D070BC0B785B01EE
:1021740003F53063C25842F00442C2500020704755
:102184004C61DCE74E690B78002E4BD08C6800EB79
:102194004313A64298BF3446D3F810594FEAD545A5
:1021A4004FEAC545C3F810590B7800EB4313D3F835
:1021B400105925F0FF5525F4C015C3F810590B78B4
:1021C40088BF4C6100EB4313D3F81059C4F31204D5
:1021D40045F40025C3F810590B7800EB4313D3F8EA
:1021E40010592C43C3F81049012A38D04B693BB12C
:1021F4000D78D0F834480122AA402243C0F834288C
:102204000B7870BC5B0103F51063C25842F00442C2
:10221400C250002070470B78CA6800EB4313C3F820
:10222400142BA2E700EB4313D3F8104924F0FF5416
:1022340024F4C014C3F810490B7800EB4313D3F80B
:10224400104944F40024C3F810490B7800EB4313FD
:10225400D3F81049E40CE404C3F81049C4E70B783C
:102264000A6900EB4313C3F81429C9E730B49DF895
:10227400084064B903339B1009D000F5805000EB8B
:10228400023251F8045B0134A3421560F9D10020F5
:1022940030BC7047033292100FD070B40C4600F576
:1022A40080560023356801339A4244F8045BF9D11F
:1022B40001EB8201084670BC70470846704700BFB6
:1022C4004B7810B4012B0B784FEA431316D003F567
:1022D40030631C581A18002C08DB1A5822F080426C
:1022E4001A500B7800EB431000F53062136800209D
:1022F40043F4001313605DF8044B704703F5106357
:102304001C581A18002CF1DB1A5822F080421A507B
:102314000A7800EB421000F51062E7E74B78012BD6
:102324000B784FEA431315D003F530631A5822F49F
:1023340000121A50CB78023B012B01D900207047C0
:102344000B785B0103F530631A5842F080521A503F
:102354000020704703F510631A5822F400121A5033
:10236400CB78023B012BE9D80B785B0103F51063B2
:102374001A5842F080521A50E0E700BF10B4FF220E
:1023840000F5106300F52E649A6003F500712033A4
:10239400A3428A60F8D100214FF0FF331024C0F823
:1023A4001838C0F810180D4BC0F81418C0F81C18D1
:1023B400046101E0013B02D00269D106FAD44FF472
:1023C40008730361054B01E0013B02D002699206E8
:1023D400FAD400205DF8044B704700BF400D0300A1
:1023E400D0F80038090123F4FE63C0F80038D0F8AF
:1023F400003801F4FE611943C0F80018002070474A
:1024040008B5D0F8043800F5006223F00203032075
:102414005360FDF775FF002008BD00BF08B5D0F874
:10242400043800F5006243F0020303205360FDF713
:1024340067FF002008BD00BF4369806918407047EA
:10244400D0F8183800F50060C0691840000C7047D7
:1024540000F50063D0F81808DB69184080B27047B3
:1024640000F5306303EB411100F500608B684069AF
:102474001840704710B4D0F81048D0F8343800EB46
:102484004110CB40DB01DBB2D0F8080923431840EC
:102494005DF8044B704700BF4369194341617047BD
:1024A400406900F001007047D0F8003900F500627F
:1024B40023F4FF6323F00703C0F80039936803F0A3
:1024C4000603042B05D1D0F8003943F00303C0F808
:1024D40000395368002043F480735360704700BF91
:1024E40010B40024C0F8104BD0F8104B012944F468
:1024F4000024C0F8104BD0F8104B44F01804C0F876
:10250400104BD0F8104B44F0C044C0F8104B05D128
:102514004FF08021C0F8142BC0F8001B00205DF898
:10252400044B7047D0F8002410B422F00302C0F822
:102534000024D0F8003401F003042343012900F5FA
:102544008062C0F800340AD0022908BF41F27073D7
:102554004FF0000008BF53605DF8044B70474BF622
:102564008033002053605DF8044B704710B5044677
:10257400D0F8403482B00193019B0A2023F02E034B
:102584000193019B43F48073C4F84034FDF7B8FE13
:10259400019B002023F48073C4F8403402B010BDC2
:1025A400D0F8403482B00193019B23F02E030193B1
:1025B400019B13F4805F019B01D101290AD0DB0444
:1025C40005D521B9019B23F48053C0F84034002081
:1025D40002B0704743F48053C0F84034019B00209C
:1025E40002B0704784B038B504460020C4F8000E29
:1025F400A06B05AD20F48020A063A06B85E80E00DD
:1026040020F40020A063A36B079A43F40013A36390
:10261400032A0699D4F800344AD023F00403C4F8FA
:1026240000344FF408732361294B01E0013B02D0CD
:1026340022699006FAD410232361254B01E0013B63
:1026440002D02269D206FAD461B10022154604F5FB
:10265400A0634FF0FF3001328A429860DD6003F1DD
:102664002003F8D101212046FFF79AFFC820FDF787
:1026740047FE00224FF0FF33B4F1A04FA261636123
:102684001ED0144A144B4FF400716162A262C4F864
:102694000031089B1BB9A36943F01003A361A2692D
:1026A4000E4B00201343A361BDE8384004B07047CB
:1026B400B4F1A04FB1D043F00403C4F80034B0E740
:1026C400074A084B80216162A262C4F80031E0E746
:1026D400400D0300000200010003E000080020A3F5
:1026E40080006000E0004000D0F8403482B00193E4
:1026F4000198C0F3414002B0704700BF00F580600C
:10270400806880B2704700BF2DE9F04700F5A066ED
:102714004D019DF824404FF0FF3E7719C7F808E0BB
:102724009DF82090BDF828E0032C6CD8DFE804F075
:102734005848580240F29D684FFA82FCBCF1000FE1
:10274400C7F80C8062DBBCF1000FB4BF4FF4004843
:102754004FF000080127B9F1020F4FEA8359D0F86E
:10276400183407FA01F709F0FE594FEAC222CEF3F2
:102774000A0E47EA030702F4F04249EA0E0E4FEA52
:102784008441C0F818744EEA020201F4402142EA7E
:10279400010382690CBF4FF4003C4FF0000C43EA84
:1027A400080343EA0C0342F00072032C8261735164
:1027B40003D1735943F0005373510020BDE8F087EF
:1027C40040F225284FFA82FCBCF1000FC7F80C80B8
:1027D400B9DAD7F80C8048F4C078C7F80C80B2E7AF
:1027E40040F29D484FFA82FCBCF1000FC7F80C8000
:1027F4000CDBB0F1A04FA6D0D7F80C8048F06008ED
:10280400C7F80C809FE74FFA82FC9CE7D7F80C804E
:1028140048F48078C7F80C8095E700BF80B483B093
:1028240000AF78607B6803F580635B699BB21846F0
:102834000C37BD465DF8047B704700BF80B485B09B
:1028440000AF78600B46FB700023FB60FB785A01F5
:102854007B68134403F5A0631B68FB785A017B680B
:10286400134403F5A0631B6803F40023002B6ED00C
:10287400FB785A017B68134403F5A0631946FB787F
:102884005A017B68134403F5A0631B6843F080433B
:102894000B607B68DB6A9BB2002B45D1FB785A0145
:1028A4007B68134403F5A0631946FB785A017B68DF
:1028B400134403F5A0631B6823F000430B60FB780B
:1028C4005A017B68134403F5A0631946FB785A0147
:1028D4007B68134403F5A0631B6843F000430B605B
:1028E400FB785A017B68134403F5A0631946FB780F
:1028F4005A017B68134403F5A0631B6823F4004367
:102904000B60FB680133FB60FB68B3F57A7F01D988
:1029140000BF1BE0FB785A017B68134403F5A063F6
:102924001B68002BEDDB11E0FB785A017B68134434
:1029340003F5A0631946FB785A017B68134403F539
:10294400A0631B6843F000430B606FE06EE0FB780C
:102954005A017B68134403F5A0631946FB785A01B6
:102964007B68134403F5A0631B6843F080430B604A
:102974007B6803F580631B699BB2002B45D1FB7810
:102984005A017B68134403F5A0631946FB785A0186
:102994007B68134403F5A0631B6823F000430B60BA
:1029A400FB785A017B68134403F5A0631946FB784E
:1029B4005A017B68134403F5A0631B6843F000438A
:1029C4000B60FB785A017B68134403F5A063194636
:1029D400FB785A017B68134403F5A0631B6823F456
:1029E40000430B60FB680133FB60FB68B3F57A7F3F
:1029F40001D900BF1AE0FB785A017B68134403F540
:102A0400A0631B68002BEDDB10E0FB785A017B68A8
:102A1400134403F5A0631946FB785A017B681344F9
:102A240003F5A0631B6843F000430B6000231846C2
:102A34001437BD465DF8047B704700BF80B485B091
:102A440000AF78600B46FB700123FB73FB785A01DF
:102A54007B68134403F5A0631A46FB7BDB04194629
:102A6400164B0B4043F000431361FB785A017B681B
:102A7400134403F5A0631946FB785A017B68134499
:102A840003F5A0631B6823F080430B60FB785A01B5
:102A94007B68134403F5A0631946FB785A017B68ED
:102AA400134403F5A0631B6843F000430B60002349
:102AB40018461437BD465DF8047B70470000F81FC4
:102AC40090B589B002AFF860B9601346FB7100237A
:102AD4007B7500237B820023FB824FF480733B824F
:102AE400FB68B3F1A04F2BD0BB681B79002B27D117
:102AF400FB79002B0BD1BB685B79012B07D1BB6839
:102B04005B78F8681946FFF799FF002315E1FB7914
:102B1400012B15D1BB685B785A01FB68134403F59C
:102B2400A0631946BB685B785A01FB68134403F53C
:102B3400A063DB6823F06003CB60BB6800225A719A
:102B4400BB681B69002B19D0BB681B69BA68128962
:102B54001344013BBA681289B3FBF2F3FB82FA8A8D
:102B64003B8A9A420CD93B8AFB82FB8ABA68128957
:102B740002FB03F31A46BB681A6101E00123FB82DE
:102B8400BB68DB78002B07D0FB8ABA68128902FB8A
:102B940003F31A46BB681A61BB685B785A01FB6889
:102BA400134403F5A0631946BB681B69C3F31202FF
:102BB400FB8ADB041846634B03401A43BB689B7AC9
:102BC4005B0703F0C04313430B61FB79002B0AD06E
:102BD400BB685B785A01FB68134403F5A0631A468B
:102BE400BB68DB685361FB6803F580639B6803F093
:102BF4000103002B0CBF01230023DBB27B75BB68F0
:102C04005B785A01FB68134403F5A0631946BB685B
:102C14005B785A01FB68134403F5A0631B6823F037
:102C240000530B60BB685B785A01FB68134403F5DF
:102C3400A0631946BB685B785A01FB68134403F52B
:102C4400A0631B687A7D520713430B60BB685B78F3
:102C54005A01FB68134403F5A0631946BB685B780B
:102C64005A01FB68134403F5A0631B6823F08043F7
:102C74000B60BB685B785A01FB68134403F5A063DF
:102C84001946BB685B785A01FB68134403F5A063DB
:102C94001B6843F000430B60FB79002B4CD1BB68ED
:102CA400DB78002B48D1BB681B69002B44D0BB6880
:102CB400DB79032B32D801A252F823F0D12C00087F
:102CC400F72C0008D12C0008F72C0008BB681B69FE
:102CD40003339B087B827A8AFB68DB6A9BB29A4245
:102CE40006D9FB689B6943F02002FB689A6116E0F1
:102CF40015E0BB681B6903339B087B827A8AFB68F7
:102D040003F580631B699BB29A4206D9FB689B69F1
:102D140043F08062FB689A6101E000E000BFBB6899
:102D2400D968BB685A78BB681B699CB200230093BE
:102D3400F8682346FFF79AFA002318461C37BD4665
:102D440090BD00BF0000F81F80B586B000AF78606A
:102D540000233B617868FEF767FE78681021FEF770
:102D64003FFF7868FEF74EFF0023FB751FE0FB7DF5
:102D74005A017B68134403F5A0631B68FB60FB687E
:102D840043F08043FB60FB6823F00043FB60FB6877
:102D940023F40043FB60FB7D5A017B68134403F575
:102DA400A0631A46FB681360FB7D0133FB75FB7D52
:102DB4000F2BDCD90023FB7530E0FB7D5A017B68C7
:102DC400134403F5A0631B68FB60FB6843F0804376
:102DD400FB60FB6843F00043FB60FB6823F40043A3
:102DE400FB60FB7D5A017B68134403F5A0631A461C
:102DF400FB6813603B6901333B613B69B3F57A7F40
:102E040000D908E0FB7D5A017B68134403F5A063F5
:102E14001B68002BEEDBFB7D0133FB75FB7D0F2B69
:102E2400CBD97B6803F580631A464FF0FF335361B7
:102E34007B684FF0FF325A617868FEF7EDFD00239E
:102E440018461837BD4680BD2DE9F04FDFF8C0C1E4
:102E540083B0D1F8009000234FF0010803E0013360
:102E6400102B00F0848008FA03F202EA0904944269
:102E7400F5D14D685F0025F0100E0322BA40BEF173
:102E8400020F6FEA020275D0D0F800A005F0030625
:102E940002EA0A0ABE400EF1FF3E4AEA0606BEF105
:102EA400010F066040F28780C66832408E68BE40DB
:102EB4001643EA00C660D2D5504A504F566C23F0F0
:102EC400030246F480467E647E6C02F1804206F47E
:102ED4008046019602F59C3203F00306019FB6007A
:102EE40097684FF00F0E0EFA06FE27EA0E0A444FBB
:102EF400B84273D007F58067B84271D0414FB842E9
:102F040071D0414FB84273D0404FB8420CBF4FF01C
:102F1400040E4FF0050E0EFA06F646EA0A0696600F
:102F2400E643DCF80020EF034CBF22433240CCF8E8
:102F34000020DCF80420AF034CBF22433240CCF81D
:102F44000420DCF80820EF024CBF22433240CCF8C6
:102F54000820DCF80C20AD0203F1010354BF06EA9B
:102F640002041443102BCCF80C407FF47CAF03B064
:102F7400BDE8F08F4FEAD30E00EB8E0E03F0070B83
:102F8400DEF820604FEA8B0B4FF00F0A0AFA0BFAB7
:102F940026EA0A0A0E6906FA0BF64AEA0606CEF88B
:102FA4002060D0F800E005F0030602EA0E0EBE40F1
:102FB4004EEA06060660866802EA060ECE68BE4041
:102FC4004EEA06068660D0F804E0C5F300162EEA41
:102FD400040E9E404EEA0606466065E700269CE71E
:102FE40008FA06F699E74FF0020E0EFA06F694E791
:102FF4004FF0030E0EFA06F68FE700BF00380240CA
:103004000000024000080240000C02400010024090
:10301400003C01402DE9F04F002383B0DFF818B1E4
:10302400DFF8188101274FF0030A4FF00F0902E07F
:103034000133102B68D007FA03F202EA0104944228
:10304400F6D15A000AFA02F5ED43E4430668DA08B9
:103054002E40066000EB820203F00706D2F820E05F
:10306400B60009FA06F62EEA06061662866823F00A
:1030740003022E408660466802F180422640466084
:10308400C66802F59C323540C56003F003059668B6
:10309400AD0009FA05FE0EEA06065845019636D03B
:1030A400214EB04235D0214EB04235D0204EB042F0
:1030B40037D0204EB0420CBF4FF0040C4FF0050C3B
:1030C4000CFA05F5019EAE42B2D19568013325EAAA
:1030D4000E059560D8F80020102B02EA0402C8F807
:1030E4000020D8F8042002EA0402C8F80420D8F822
:1030F400082002EA0402C8F80820D8F80C2004EAE0
:103104000204C8F80C4096D103B0BDE8F08F002546
:10311400D8E707FA05F5D5E74FF0020C0CFA05F5E8
:10312400D0E70AFA05F5CDE70004024000080240A2
:10313400000C02400010024000000240003C01402C
:103144000369194214BF01200020704702B9090421
:1031540081617047436959404161704782B04FF4BF
:1031640080330193019B0B430193019BC361C161B4
:10317400019BC361C3690193C06980F48030C0F3CB
:10318400004002B0704700BF704700BF044A08B552
:103194005169084202D05061FFF7F6FF08BD00BF35
:1031A400003C014038B5134602250A468361C361D9
:1031B400C0F8F451002100F099FE002038BD00BF92
:1031C40010B50C4613460021224600F08FFE002065
:1031D40010BD00BF38B5134603250A46C0F80831B0
:1031E400C0F80C31C0F8F451002100F087FE002033
:1031F40038BD00BF10B50C4613460021224600F02E
:103204007DFE002010BD00BF08B500210423C0F8D6
:10321400F4310A460B4600F069FE002008BD00BFE9
:1032240008B500210523C0F8F4310A460B4600F026
:1032340065FE002008BD00BF08B500F067FE80B23F
:1032440008BD00BF30B54B7883B00D460446092B4A
:103254000BD8DFE803F035490A590A05660A7D15DB
:103264008B8813B9CB88002B7FD08021204600F0B7
:1032740011FE2046002100F00DFE002003B030BDF9
:1032840089789C4D01292970EFD890F8FC31022BE4
:1032940000F08980032BE8D1002900F020814168E7
:1032A400012909D0C9B200F06FFB2978204661607A
:1032B40000F060FB0228D8D02046FFF7A5FFDCE72A
:1032C40090F8FC310122023B93424FF00301CCD829
:1032D400D0F80432C26003B1C160204604F10C018D
:1032E4000222FFF75FFFC8E790F8FC31023B012B95
:1032F400BBD84B88012BC0D1D0F8143200229B6874
:10330400C0F804229847D7E74B88012BB5D1D0F8F1
:103314001422C0F80432936898472046FFF774FFDC
:10332400ABE74A88130A013B062B9ED801A151F84A
:1033340023F000BF1D340008413400082F34000876
:103344006F3200086F32000805340008C5330008E6
:10335400CA88012A89D190F8FC31022B1CD0032B96
:1033640083D1011DFFF71EFF87E790F8FC318D78AC
:10337400032B05F07F053FF478AF80F8FE51294612
:1033840000F0ACFD2046FFF73FFF002D00F09980D0
:10339400022384F8FC3170E70146002341F8083F1A
:1033A400FFF700FF69E7002986D00121032341606C
:1033B40080F8FC3100F0DEFA02287FF47DAF54E798
:1033C400037C002B7FF451AFD0F814320DF10600CA
:1033D4001B6B9847014607234370BDF80630002B4A
:1033E4003FF44BAFEA88002A3FF447AF934228BF2B
:1033F400134620461A46ADF80630FFF7D3FE3CE7E5
:10340400037C002B7FF431AFD0F814320DF10600A9
:103414005B6B98470146E0E7D0F810320DF10601E6
:10342400007C1B6898470146D7E7D2B2052A3FF6CD
:103434001CAFDFE802F02B2219103D34037C002B73
:1034440043D1D0F814320DF106009B6A9847022349
:1034540001464370C1E7D0F810320DF10601007C3B
:103464001B6998470146B8E7D0F810320DF1060100
:10347400007CDB6898470146AFE7D0F810320DF1C5
:103484000601007C9B6898470146A6E7D0F81032F5
:103494000DF10601007C5B68984701469DE7D0F872
:1034A40010320DF10601007C9B699847014694E7B0
:1034B400D0F810320DF10601007C5B699847014693
:1034C4008BE7012384F8FC31D7E6D0F814320DF1F0
:1034D4000600DB6A98470223014643707DE7022316
:1034E400416080F8FC3100F04FFA2046FFF78CFE73
:1034F400C3E600BFAC09002038B590F8FC3104469F
:10350400032B03D10B790D46012B08D9802100F040
:10351400C1FC2046002100F0BDFC002038BDD0F8DD
:1035240014329B689847EB88002BF6D12046FFF7AE
:103534006BFEF2E770B50B788A8803F06003202BEA
:103544000C46D6B2054655D04B78012B34D019D34E
:10355400032B15D190F8FC31022B31D0032B40D131
:103564004B8823B9730602D0314600F093FCD5F89A
:10357400143221469B68284698472846FFF744FEA4
:10358400002070BD90F8FC31022B19D0032B28D1F8
:1035940006F07F04130600EB041431464CBF1434C8
:1035A40004F5827400F086FC48BB2060284621465E
:1035B4000222FFF7F7FDE3E790F8FC31022B05D177
:1035C4007206DDD0314600F065FCD9E7032B08D143
:1035D4004B88002BD4D17106CFD0314600F062FC69
:1035E400C5E7802100F056FC2846002100F052FC7B
:1035F400002070BDD0F814329B689847C0E70123BF
:103604002360D3E70B7803704B784370CA788B78C8
:1036140003EB022343804A790B7903EB0223838073
:10362400CA798B7903EB0223C380704710B5044633
:10363400802100F02FFC2046BDE81040002100F05E
:1036440029BC00BF00B3037830B4F3B104460023AF
:1036540014F8015F0133DBB2002DF9D15B000233B2
:10366400DCB2032513800C704D7004785CB1022326
:1036740000255A1CD2B2CC548D5410F8014F023399
:10368400DBB2002CF5D130BC704702242346E8E7B6
:10369400D0F818321BB10020C3F81402704702207E
:1036A400704700BFD0F81C3210B5D0F818425BB197
:1036B40094F80002FF2807D09B68214694F8012261
:1036C4009847FF2384F80032002010BD4323038071
:1036D40000487047140000204323038000487047CB
:1036E4005800002043230380004870479C000020BA
:1036F4000A23038000487047E000002038B50446E0
:10370400D0F8185200F002FCD4F81832C5F80C02B4
:103714004BB1D4F81C32D5F80402DB6805F503710B
:103724009847002038BD022038BD00BF70B50B7823
:103734000C4613F060020546D0F8186211D0202A16
:103744000DD1CA8812B31B0614D44B78314686F8BF
:103754000032E38886F80132E288FFF73BFD00205F
:1037640070BD4B780A2BFAD10B490122FFF71AFDE1
:10377400002070BDD0F81C3248789B6831469847C9
:1037840028463146E288FFF70DFDE8E7D0F81C3201
:1037940048789B689847E2E7AD09002010B50446D5
:1037A400812100F067FB0121204600F063FB2046E5
:1037B400822100F05FFBD4F8183253B1D4F81C32E4
:1037C4005B689847D4F8180200F004FE0023C4F89C
:1037D4001832002010BD00BFF8B5037C04468121D7
:1037E400022263BB4FF4007300F03AFB2046012130
:1037F40002224FF4007300F033FB822103220823DA
:10380400204600F02DFB4FF4077000F0DBFD054669
:10381400C4F8180218B3D4F81C3200261B68984761
:10382400277CC5F814622046C5F81862D5F804222E
:10383400012177B1402300F061FB3046F8BD4023FD
:1038440000F00EFB204601210222402300F008FB79
:10385400D3E74FF4007300F051FB3846F8BD012064
:10386400F8BD00BF19B1C0F81C1200207047022037
:10387400704700BFD0F818320020C3F80812C3F80C
:1038840010227047D0F818320020C3F80412704791
:10389400D0F818328BB110B5D3F814420CB1012012
:1038A40010BD0122C3F814228121D3F80822B3F8F1
:1038B400103200F01BFB204610BD0220704700BFF1
:1038C400D0F8182282B110B5047CD2F80422012168
:1038D40024B1402300F012FB002010BD4FF400730C
:1038E40000F00CFB204610BD0220704788B108B5DB
:1038F400D0F8143213B10023C0F8143209B1C0F85F
:1039040010120123027080F8FC3100F063FA0020E9
:1039140008BD0220704700BF10B504460122D0F84C
:10392400143280F8FC215B6801799847204600F046
:103934008FFA204600F07CFA002010BD19B1C0F8BF
:103944001412002070470220704700BF08B500F031
:1039540077FA002008BD00BF10B50446D0F8143231
:1039640001795B689847204600F072FA002010BD88
:103974000020704708B5D0F8143213B11B6898477B
:1039840008B1022008BD08BD08B5D0F814325B6840
:103994009847002008BD00BF38B5044600F50275FD
:1039A4002846FFF72FFE94F808120120B4F80E22DF
:1039B40001F01F038342C4F8F401C4F8F82115D0C0
:1039C4000ED3022B06D0204601F0800100F062FAEB
:1039D400002038BD20462946FFF7ACFD002038BD45
:1039E40020462946FFF72EFC002038BD20462946F4
:1039F400FFF782FD002038BD10B5044631B91346E7
:103A0400D0F8F421032A0CD0002010BDD0F81432D1
:103A14009B69002BF8D090F8FC21032AF4D1984735
:103A2400F2E7D0F80C11D0F8102191420CD8D0F85C
:103A340014321B691BB190F8FC21032A0FD02046D5
:103A4400FFF7E2FB002010BD891A8A4228BF0A460C
:103A5400C0F80C1192B21946FFF7CCFBD4E7984793
:103A6400EDE700BF70B5044651B91346D0F8F42110
:103A7400022A15D094F80032012B0CD0002070BD1E
:103A8400D0F814325B69002BF8D090F8FC21032A9B
:103A9400F4D19847F2E7002384F80032002070BD87
:103AA400C669026A964223D88369B3FBF2F502FB26
:103AB40015358DB99A420FD8D0F8F82193420BD21C
:103AC4002A46FFF77DFBC4F8F851204629462A46CA
:103AD4002B4600F013FACDE7D4F81432DB681BB19F
:103AE40094F8FC21032A0BD02046FFF799FBC1E789
:103AF400B21A0D46C261194692B2FFF761FBE4E7C0
:103B040020469847F0E700BF38B5402304461D46D9
:103B140000210A4600F0A4F92B460022C4F81051F3
:103B24002046802100F09CF9D4F818320122256245
:103B340084F8FC212BB1D4F8143220465B68217937
:103B44009847002038BD00BF01740020704700BFB3
:103B540090F8FC21042380F8FD2180F8FC3100203A
:103B6400704700BF034690F8FD21002083F8FC2134
:103B7400704700BF08B590F8FC21032A01D000204B
:103B840008BDD0F81432DB69002BF8D09847002028
:103B940008BD00BF0020704700207047012380F853
:103BA400FF310020704700BF10B504460122D0F851
:103BB400143280F8FC215B6801799847002084F86E
:103BC400FF0110BD12230B80004870472401002020
:103BD40004230B80004870473801002010B5044CC2
:103BE4000A4604482146FFF72DFD204610BD00BFBC
:103BF400E8090020904B000810B5044C0A4604481C
:103C04002146FFF71FFD204610BD00BFE809002034
:103C1400A44B000810B5044C0A4604482146FFF79B
:103C240011FD204610BD00BFE8090020BC4B000870
:103C340010B5044C0A4604482146FFF703FD20460C
:103C440010BD00BFE8090020CC4B000810B5044C9F
:103C54000A4604482146FFF7F5FC204610BD00BF84
:103C6400E8090020D84B00080368B3F1A04F00D046
:103C7400704770B586B0002401A94FF4007316484C
:103C84000193029403944FF4E056FFF7DDF8022504
:103C940001A903220A231048039404920593019670
:103CA4000295FFF7D1F80D4B2146586B224640F0A0
:103CB400800058635C6C432044F480445C645B6C17
:103CC40003F480430093009BFDF74EF84320FDF777
:103CD40081F806B070BD00BF000002400038024009
:103CE40008B50368B3F1A04F00D008BD094B0A48DA
:103CF4005A6B4FF4F05122F080025A635A6C22F44A
:103D040080425A64FFF786F9BDE808404320FDF776
:103D14006DB800BF00380240000002400146D0F8F0
:103D2400B00301F56071FFF737BE00BFC1EBC103FB
:103D340000EB8303D3F8E421D0F8B003FFF75CBEB3
:103D4400C1EBC10300EB83031A6CD0F8B003FFF797
:103D540089BE00BFD0F8B003FFF70CBF10B504460E
:103D6400C168D0F8B003003118BF0121FFF7ECFEA1
:103D7400D4F8B003BDE81040FFF7C6BE10B5044642
:103D8400D0F8B003FFF7E4FE2268D2F8003E43F017
:103D94000103C2F8003E236A23B1034A136943F0C6
:103DA4000603136110BD00BF00ED00E0D0F8B003BE
:103DB400FFF7D8BED0F8B003FFF7EEBED0F8B003DB
:103DC400FFF7E8BED0F8B003FFF7E8BED0F8B003C1
:103DD400FFF7EABE70B505782DBB144C0223072209
:103DE4004FF0A041C4F8B0030126C0F82042204699
:103DF40084E80600E360A36125616561E5612562ED
:103E04006562E562A662FDF7A9F880212046FCF709
:103E140017FB294640222046FCF7ECFA204631469F
:103E24008022FCF7E7FA002070BD00BFE80B0020F9
:103E340008B5D0F82002FDF7FDF8002008BD00BF4A
:103E440008B5D0F82002FDF717F9002008BD00BF1F
:103E540008B5D0F82002FDF725F9002008BD00BF01
:103E640010B51446D0F820021A462346FDF70CFC80
:103E7400002010BD08B5D0F82002FDF741FC002059
:103E840008BD00BF08B5D0F82002FDF735FD0020BD
:103E940008BD00BF08B5D0F82002FDF7D3FC002010
:103EA40008BD00BF08B5D0F82002FDF7FBFC0020D8
:103EB40008BD00BF0B06D0F8202206D4C1EBC10117
:103EC40002EB810191F8DA01704701F07F03C3EB43
:103ED400C30302EB830393F83600704708B5D0F8A8
:103EE4002002FDF7BFFB002008BD00BF08B5D0F8D5
:103EF4002002FDF76DFC002008BD00BF08B5D0F816
:103F04002002FDF725FC002008BD00BF08B5D0F84D
:103F14002002FDF753FC08BDFCF7F2B910B5094CBB
:103F2400002209492046FFF7E1FC20460749FFF734
:103F340005FD20460649FFF795FC2046BDE81040E4
:103F4400FFF704BD9C0F00203C010020EC00002082
:103F54005801002000B5064A83B092E803008DE8BA
:103F640003006846072100F0E3F803B05DF804FBA2
:103F7400E84B0008234BF0B5196C95B041F0805123
:103F840019641B6C204A03F080530193019B13684E
:103F9400022423F4404343F40043136013680125CF
:103FA40003F44043029308214FF4A8720426072324
:103FB4004FF4800708A8DDF808E0089509951091EA
:103FC400119213930E940F9712960525FCF762FA3B
:103FD4004FF480522146002303A8069205930793C9
:103FE40004940395FCF70EFCFCF7B6FD074BA3FB0A
:103FF40000308009FCF716FF3046FCF79BFF15B034
:10400400F0BD00BF0038024000700040D34D621084
:1040140008B50720FCF796FEBDE8084000210A46D3
:104024004FF0FF30FCF7A0BE08B5FCF75BF9BDE824
:104034000840FCF78DBF00BF0148FDF761B800BF21
:10404400E80B0020FFF786BF002070470020704770
:104054000020704710B5074B074C1846002207494B
:104064002360FFF707FC20680549FFF70BFC0020DD
:1040740010BD00BF9C0F0020C011002004120020BE
:10408400C4110020034B1B68D3F81832D3F80C0278
:10409400704700BFC0110020F8B5174F06463868B6
:1040A4000D46FFF70DFC3B68D3F81842D4F80C0218
:1040B400F8B1FDB132466E1EB6B2013616440F4D4C
:1040C400012307E03C68D4F81842D4F80C12994252
:1040D4000CD9734615F8014F98B202F8014BB2425D
:1040E40003F1010EEED13B68D3F818420023C4F863
:1040F4000C32F8BD2846F9E7C0110020C311002096
:1041040038B5094C05462068FFF7DAFB2368D3F875
:104114001832B3F80C0208B9286038BD034A0021EC
:10412400C3F80C122A6038BDC0110020C41100204D
:1041340010B5054C0A4601462068FFF79BFB206832
:10414400BDE81040FFF7A4BBC0110020DFF830D059
:10415400002103E00B4B5B58435004310A480B4BDE
:1041640042189A42F6D30A4A02E0002342F8043B7A
:10417400084B9A42F9D3FCF70BF800F00FF870479C
:10418400FFFF0020F44B000800000020A4090020D9
:10419400A40900200C120020FEE700002DE9F04FD6
:1041A40099B0FCF785F8FFF7E5FE7D4B4FF0040C62
:1041B4001A6B012742F010021A631A6B4FF00208BF
:1041C40002F010020292029A1A6B4FF0080B42EAB4
:1041D4000C021A631A6B002602EA0C020392039A79
:1041E4001A6B08A942F080021A631A6B6D4802F038
:1041F40080020492049A1A6B4FF005093A431A6339
:104204001A6B4FF0060A3A400592059A1A6B664CEF
:1042140042EA08021A631A6B254602EA0802069269
:10422400069A1A6B42EA0B021A631B6BCDF820C084
:1042340003EA0B030793CDF804C0079B09960A967B
:10424400FEF702FE08A957480A960B96CDF820B04F
:104254000997FEF7F9FD554A322308A951480992F6
:1042640008930A96FEF7F0FD08A9514808970997A4
:104274000A960B96FEF7E8FD08A94D48CDF820B044
:104284000A960B96CDF82480CDF83090FEF7DCFD2D
:10429400484B08A94848099308970A96FEF7D4FDA5
:1042A400324641465046FCF75FFD5046FCF792FD0E
:1042B400102308A940480893CDF824800A960B9649
:1042C400CDF830A0FEF7C0FDE022032308A93A4848
:1042D40008920B93CDF824800A96CDF83090FEF71F
:1042E400B3FD4FF4A05308A934480893CDF8309097
:1042F400CDF824800A960B96FEF7A6FD4FF2100324
:1043040008A92F48089309970A960B96FEF79CFD77
:104314004FF4A45308A926480893CDF824800A969C
:104324000B96CDF830A0FEF78FFD202308A9244872
:10433400089309960A96FEF787FDDDF804C04FF44A
:104344001072122308A91D48CDF830C008920993B1
:104354000A970B96FEF778FDFFF7E0FD6420FBF764
:10436400CFFF94F8FF31002BF8D095F8FC31032BE4
:10437400F4D113484FF40051FEF7ECFE08A8402195
:10438400FFF78AFE06460028E8D00D484FF4805116
:10439400FEF7E0FE08A83146FFF7CAFEDEE700BFDD
:1043A40000380240001002409C0F00200000121050
:1043B40000080240000021100000024000040240F6
:1043C400000C0240024B0146186800F00BB800BF15
:1043D400A0090020024B0146186800F0E9BA00BFAA
:1043E400A00900202DE9F04F01F10B05162D83B033
:1043F400064627D935F0070500F1B680A94200F238
:10440400B38000F071FAB5F5FC7F22D2BC4FE80806
:1044140007EBC003DC689C4200F0BD816368E1687F
:1044240023F0030323445A68A56842F00102E960BB
:1044340030468D605A6000F059FA0834204603B0C3
:10444400BDE8F08F102900F28F8000F04DFA10259E
:10445400DCE7680A00F08F80042800F24781A8098D
:1044640038304100A64F07EB8101CC68A14206D148
:104474000CE0002A80F28280E468A14206D06368DE
:1044840023F003035A1B0F2AF3DD013801309C4942
:104494003C6901F1080E744500F07281636823F0F1
:1044A40003035A1B0F2A00F35881002AC1F814E0B1
:1044B400C1F810E066DAB3F5007F80F02D81DB08E7
:1044C40001EBC3084FEAA30C4A68012303FA0CF377
:1044D400D8F808C01343C4F808C0C4F80C804B6073
:1044E400C8F80840CCF80C408210012494409C4247
:1044F40055D8234206D120F003006400234200F182
:104504000400FAD007EBC008C4468146DCF80C303E
:104514009C4507D136E1002980F24681DB689C4541
:1045240000F030815A6822F00302511B0F29F2DD9A
:104534001C46DA6854F808CF45F0010941F0010837
:104544001D44C3F804903046CCF80C20C2F808C0CF
:104554007D613D61C5F80CE0C5F808E0C5F804804C
:10456400695000F0C3F969E7002420460C23336046
:1045740003B0BDE8F08F7E213F2073E723445A68DF
:10458400E16851E723445A68304642F001025A6018
:10459400083400F0ABF9204603B0BDE8F08FBC68E6
:1045A400636823F00308454504D8C5EB08030F2BC3
:1045B40000F38C80534BDFF85CA11A68DAF8003002
:1045C4002A44013304EB080B00F0518102F58052B8
:1045D4000F3222F47F6222F00F021146304601921C
:1045E40000F086F9B0F1FF3F8146019A00F0F680B1
:1045F400834500F2F080444BCB451968114419609F
:1046040000F03E81DAF80000DFF808E101301BBF5A
:10461400CBEB090B5944CEF80090196019F007014F
:1046240000F00881C1F10800C1F5805181440831CE
:104634004A44C2F30B02C2EB010A514630460193CD
:1046440000F056F9431C019B00F02881C9EB0002DD
:10465400524442F001021968BC425144C7F8089020
:104664001960C9F80420DFF8A0A016D0B8F10F0F24
:1046740040F2E3806268A8F10C0323F0070302F020
:104684000102E0184FF0050E1A430F2B6260C0F8C8
:1046940004E0C0F808E000F205811C4BBC681A680D
:1046A400914288BF19601A4B1A689142626888BFA8
:1046B400196022F003029542A2EB050301D80F2BE7
:1046C40004DC304600F012F90024B7E645F001029C
:1046D40043F00103254462603046BD6008346B60DA
:1046E40000F004F9204603B0BDE8F08F14286AD91D
:1046F400542800F29880280B6E304100B2E600BFC7
:1047040068010020B8090020BC090020B409002079
:10471400B0090020740500205A0A042A56D9142A24
:1047240000F2A7805B324FEA420C07EB8C0CDCF8FA
:104734000810DFF8B081614500F085804A6822F0F6
:104744000302934202D289688C45F7D1CA687B6818
:10475400E260A1609460CC60C6E645F0010742F0D7
:1047640001032544676030464D610D61C5F80CE0D6
:10477400C5F808E06B60AA50083400F0B7F85DE6AD
:104784004B68B1E609F1010919F0030F0CF1080CAB
:104794007FF4BCAE2BE004F108036469A34208BFB4
:1047A40002303FF474AE39E61C461A445168DB68A3
:1047B40054F8085F41F0010151603046EB609D60A0
:1047C40000F094F83AE65B3041004BE69A0938323F
:1047D4004FEA420CA9E7BC423FF40DAFBC686268E3
:1047E40022F0030267E7D8F80080984577D110F0EB
:1047F400030FA8F1080300F1FF30F4D17B6823EA2A
:1048040004037B6064009C423FF6C9AE002C3FF475
:10481400C6AE234248467FF475AE6400234200F1DD
:104824000400FAD06EE6B0F5AA7F18D8E80B77300A
:10483400410017E64FF48051FAE60123C9F8043029
:104844004C46002237E7D8F8043092104FF0010CA0
:104854000CFA02F21343C8F804300A4678E740F22F
:104864005453984217D8A80C7C304100FAE5103212
:10487400B3E6542A1ED81A0B6E324FEA420C54E7A0
:10488400CBF30B0000287FF4BDAE4244BB6842F07A
:1048940001025A6001E7FC217E20E3E501224FF08A
:1048A400000AD8E604F10801304600F081F8DAF88D
:1048B4000010F2E6B2F5AA7F04D8DA0B77324FEA99
:1048C400420C32E740F254518A4204D89A0C7C32AA
:1048D4004FEA420C29E74FF0FC0C7E2225E77B6867
:1048E40090E700BF68010020704700BF704700BF19
:1048F40038B5074C002305460846236000F030F91C
:10490400431C00D038BD2368002BFBD02B6038BD7E
:1049140008120020F8B50C46224F0646FFF7E4FFC4
:10492400BB685D6825F00305291B01F6EF7121F4CE
:104934007F6121F00F01A1F58054B4F5805F07DB9E
:1049440030460021FFF7D4FFBB682B44984204D0C3
:104954003046FFF7CBFF0020F8BD30466142FFF739
:10496400C7FF01300DD0104BBA6819682D1B45F0F4
:1049740001053046091B55601960FFF7B7FF012098
:10498400F8BD30460021FFF7B3FFBA68831A0F2B36
:10499400DEDD064C0449246843F00103001B536028
:1049A4000860D5E768010020BC09002074050020D8
:1049B40000294ED02DE9F0410C468046FFF794FFC4
:1049C40054F8047C6249A4F1080527F00102AB18ED
:1049D4008E6858689E4220F003005AD0FE07586043
:1049E4000BD454F8087C01F1080EED1BAC683A4472
:1049F400744567D0EF68E760BC601C186468E4071E
:104A04000CD4544F9C680244BC427CD0D86842F019
:104A14000103E06084606B60AA5003E042F001038C
:104A24006B60AA50B2F5007F14D2D20801EBC20326
:104A340001244868921004FA02F29C681043AC60A6
:104A4400EB6048609D60E5604046BDE8F041FFF7DB
:104A54004DBF7047530A042B47D8930903F1380418
:104A6400600001EB800083683949834243D0596870
:104A740021F00301914202D99B689842F7D1DA6888
:104A8400EA60AB6040469560DD60BDE8F041FFF749
:104A94002DBFFF07024407D454F8084C2D1BEB68C4
:104AA400A8682244C36098602B4B42F001001B6845
:104AB40068609A428D60C7D3284B40461968FFF757
:104AC40029FFC1E719184968C90709D4D9680244FC
:104AD4009B6842F00100D9608B606860AA50B3E71C
:104AE40042F001036B60AA50AEE7142B14D803F113
:104AF4005B046000B5E74A68A4100120A0400243AB
:104B04004A601A46BCE742F001034D610D61EC6056
:104B1400AC606B60AA5097E7542B04D8130B03F1D5
:104B24006E0460009DE7B3F5AA7F04D8D30B03F1AC
:104B34007704600095E740F25450834204D8930C04
:104B440003F17C0460008CE7FC207E2489E700BF2D
:104B5400680100207001002070050020B8090020C1
:104B6400044A05491368002B08BF0B46184410601B
:0C4B740018467047E40900200C120020D5
:104B800000000000010203040102030406070809F3
:104B900053544D6963726F656C656374726F6E69AF
:104BA0006373000053544D3332205669727475613B
:104BB0006C20436F6D506F727400000030303030E5
:104BC0003030303030303141000000004344432069
:104BD000436F6E666967000043444320496E746505
:104BE0007266616365000000776F726B696E6700C3
:044BF000430000007E
:104BF4000000000000000000010203040607080989
:104C04000024F40009024300020100C03209040038
:104C14000001020201000524001001052401000125
:104C2400042402020524060001070582030800107B
:104C340009040100020A0000000705010240000007
:104C4400070581024000000009024300020100C080
:104C540032090400000102020100052400100105CC
:104C64002401000104240202052406000107058230
:104C74000308001009040100020A000000070501EE
:104C84000200020007058102000200000907430038
:104C9400020104C0320904000001020201000524DB
:104CA4000010010524010001042402020524060069
:104CB40001070582030800FF09040100020A00003D
:104CC40000070501024000000705810240000000C2
:104CD4000A0600020000004001000000DD37000861
:104CE400A13700083137000800000000A936000889
:104CF400953600080137000800000000000000009D
:104D040000000000DD360008D1360008E93600084E
:104D1400F5360008120100020000004083044057E9
:104D2400000201020301000004030904C93B000856
:104D3400D53B0008E13B0008FD3B0008193C000896
:104D4400353C0008513C0008594000084D4000081B
:104D54005140000855400008000000000000000019
:104D6400680100206801002070010020700100200B
:104D740078010020780100208001002080010020BB
:104D8400880100208801002090010020900100206B
:104D94009801002098010020A0010020A00100201B
:104DA400A8010020A8010020B0010020B0010020CB
:104DB400B8010020B8010020C0010020C00100207B
:104DC400C8010020C8010020D0010020D00100202B
:104DD400D8010020D8010020E0010020E0010020DB
:104DE400E8010020E8010020F0010020F00100208B
:104DF400F8010020F8010020000200200002002039
:104E040008020020080200201002002010020020E6
:104E14001802002018020020200200202002002096
:104E24002802002028020020300200203002002046
:104E340038020020380200204002002040020020F6
:104E440048020020480200205002002050020020A6
:104E54005802002058020020600200206002002056
:104E64006802002068020020700200207002002006
:104E740078020020780200208002002080020020B6
:104E84008802002088020020900200209002002066
:104E94009802002098020020A0020020A002002016
:104EA400A8020020A8020020B0020020B0020020C6
:104EB400B8020020B8020020C0020020C002002076
:104EC400C8020020C8020020D0020020D002002026
:104ED400D8020020D8020020E0020020E0020020D6
:104EE400E8020020E8020020F0020020F002002086
:104EF400F8020020F8020020000300200003002034
:104F040008030020080300201003002010030020E1
:104F14001803002018030020200300202003002091
:104F24002803002028030020300300203003002041
:104F340038030020380300204003002040030020F1
:104F440048030020480300205003002050030020A1
:104F54005803002058030020600300206003002051
:104F64006803002068030020700300207003002001
:104F740078030020780300208003002080030020B1
:104F84008803002088030020900300209003002061
:104F94009803002098030020A0030020A003002011
:104FA400A8030020A8030020B0030020B0030020C1
:104FB400B8030020B8030020C0030020C003002071
:104FC400C8030020C8030020D0030020D003002021
:104FD400D8030020D8030020E0030020E0030020D1
:104FE400E8030020E8030020F0030020F003002081
:104FF400F8030020F803002000040020000400202F
:1050040008040020080400201004002010040020DC
:10501400180400201804002020040020200400208C
:10502400280400202804002030040020300400203C
:1050340038040020380400204004002040040020EC
:10504400480400204804002050040020500400209C
:10505400580400205804002060040020600400204C
:1050640068040020680400207004002070040020FC
:1050740078040020780400208004002080040020AC
:10508400880400208804002090040020900400205C
:105094009804002098040020A0040020A00400200C
:1050A400A8040020A8040020B0040020B0040020BC
:1050B400B8040020B8040020C0040020C00400206C
:1050C400C8040020C8040020D0040020D00400201C
:1050D400D8040020D8040020E0040020E0040020CC
:1050E400E8040020E8040020F0040020F00400207C
:1050F400F8040020F804002000050020000500202A
:1051040008050020080500201005002010050020D7
:105114001805002018050020200500202005002087
:105124002805002028050020300500203005002037
:1051340038050020380500204005002040050020E7
:105144004805002048050020500500205005002097
:105154005805002058050020600500206005002047
:1051640000000200FFFFFFFF0000000064080020B1
:10517400CC080020340900200000000000000000DA
:10518400000000000000000000000000000000001B
:10519400000000000000000000000000F04B0008C8
:1051A40000000000000000000000000000000000FB
:1051B40000000000000000000000000000000000EB
:1051C40000000000000000000000000000000000DB
:1051D40000000000000000000000000000000000CB
:1051E40000000000000000000000000000000000BB
:1051F40000000000000000000000000000000000AB
:10520400000000000000000000000000000000009A
:1052140001000000000000000E33CDAB34126DE637
:10522400ECDE05000B0000000000000000000000A0
:10523400000000000000000000000000000000006A
:10524400000000000000000000000000000000005A
:10525400000000000000000000000000000000004A
:10526400000000000000000000000000000000003A
:045594007805002076
:04000005080041515D
:00000001FF
